{
  "contractName": "Voting",
  "abi": [
    {
      "inputs": [],
      "stateMutability": "nonpayable",
      "type": "constructor"
    },
    {
      "anonymous": false,
      "inputs": [
        {
          "indexed": true,
          "internalType": "uint256",
          "name": "_candidateId",
          "type": "uint256"
        }
      ],
      "name": "votedEvent",
      "type": "event"
    },
    {
      "inputs": [
        {
          "internalType": "uint256",
          "name": "",
          "type": "uint256"
        }
      ],
      "name": "candidates",
      "outputs": [
        {
          "internalType": "uint256",
          "name": "id",
          "type": "uint256"
        },
        {
          "internalType": "string",
          "name": "name",
          "type": "string"
        },
        {
          "internalType": "uint256",
          "name": "voteCount",
          "type": "uint256"
        }
      ],
      "stateMutability": "view",
      "type": "function"
    },
    {
      "inputs": [],
      "name": "candidatesCount",
      "outputs": [
        {
          "internalType": "uint256",
          "name": "",
          "type": "uint256"
        }
      ],
      "stateMutability": "view",
      "type": "function"
    },
    {
      "inputs": [
        {
          "internalType": "address",
          "name": "",
          "type": "address"
        }
      ],
      "name": "voters",
      "outputs": [
        {
          "internalType": "bool",
          "name": "",
          "type": "bool"
        }
      ],
      "stateMutability": "view",
      "type": "function"
    },
    {
      "inputs": [
        {
          "internalType": "uint256",
          "name": "_candidateId",
          "type": "uint256"
        }
      ],
      "name": "vote",
      "outputs": [],
      "stateMutability": "nonpayable",
      "type": "function"
    }
  ],
  "bytecode": "0x608060405234801562000010575f80fd5b50620000576040518060400160405280600b81526020017f43616e64696461746f2031000000000000000000000000000000000000000000815250620000a360201b60201c565b6200009d6040518060400160405280600b81526020017f43616e64696461746f2032000000000000000000000000000000000000000000815250620000a360201b60201c565b620004dc565b60015f815480929190620000b79062000151565b9190505550604051806060016040528060015481526020018281526020015f8152505f8060015481526020019081526020015f205f820151815f015560208201518160010190816200010a9190620003f8565b506040820151816002015590505050565b7f4e487b71000000000000000000000000000000000000000000000000000000005f52601160045260245ffd5b5f819050919050565b5f6200015d8262000148565b91507fffffffffffffffffffffffffffffffffffffffffffffffffffffffffffffffff82036200019257620001916200011b565b5b600182019050919050565b5f81519050919050565b7f4e487b71000000000000000000000000000000000000000000000000000000005f52604160045260245ffd5b7f4e487b71000000000000000000000000000000000000000000000000000000005f52602260045260245ffd5b5f60028204905060018216806200021957607f821691505b6020821081036200022f576200022e620001d4565b5b50919050565b5f819050815f5260205f209050919050565b5f6020601f8301049050919050565b5f82821b905092915050565b5f60088302620002937fffffffffffffffffffffffffffffffffffffffffffffffffffffffffffffffff8262000256565b6200029f868362000256565b95508019841693508086168417925050509392505050565b5f819050919050565b5f620002e0620002da620002d48462000148565b620002b7565b62000148565b9050919050565b5f819050919050565b620002fb83620002c0565b620003136200030a82620002e7565b84845462000262565b825550505050565b5f90565b620003296200031b565b62000336818484620002f0565b505050565b5b818110156200035d57620003515f826200031f565b6001810190506200033c565b5050565b601f821115620003ac57620003768162000235565b620003818462000247565b8101602085101562000391578190505b620003a9620003a08562000247565b8301826200033b565b50505b505050565b5f82821c905092915050565b5f620003ce5f1984600802620003b1565b1980831691505092915050565b5f620003e88383620003bd565b9150826002028217905092915050565b62000403826200019d565b67ffffffffffffffff8111156200041f576200041e620001a7565b5b6200042b825462000201565b6200043882828562000361565b5f60209050601f8311600181146200046e575f841562000459578287015190505b620004658582620003db565b865550620004d4565b601f1984166200047e8662000235565b5f5b82811015620004a75784890151825560018201915060208501945060208101905062000480565b86831015620004c75784890151620004c3601f891682620003bd565b8355505b6001600288020188555050505b505050505050565b61071e80620004ea5f395ff3fe608060405234801561000f575f80fd5b506004361061004a575f3560e01c80630121b93f1461004e5780632d35a8a21461006a5780633477ee2e14610088578063a3ec138d146100ba575b5f80fd5b61006860048036038101906100639190610376565b6100ea565b005b610072610271565b60405161007f91906103b0565b60405180910390f35b6100a2600480360381019061009d9190610376565b610277565b6040516100b193929190610453565b60405180910390f35b6100d460048036038101906100cf91906104e9565b610322565b6040516100e1919061052e565b60405180910390f35b60025f3373ffffffffffffffffffffffffffffffffffffffff1673ffffffffffffffffffffffffffffffffffffffff1681526020019081526020015f205f9054906101000a900460ff1615610174576040517f08c379a000000000000000000000000000000000000000000000000000000000815260040161016b90610591565b60405180910390fd5b5f8111801561018557506001548111155b6101c4576040517f08c379a00000000000000000000000000000000000000000000000000000000081526004016101bb906105f9565b60405180910390fd5b600160025f3373ffffffffffffffffffffffffffffffffffffffff1673ffffffffffffffffffffffffffffffffffffffff1681526020019081526020015f205f6101000a81548160ff0219169083151502179055505f808281526020019081526020015f206002015f81548092919061023c90610644565b9190505550807ffff3c900d938d21d0990d786e819f29b8d05c1ef587b462b939609625b684b1660405160405180910390a250565b60015481565b5f602052805f5260405f205f91509050805f01549080600101805461029b906106b8565b80601f01602080910402602001604051908101604052809291908181526020018280546102c7906106b8565b80156103125780601f106102e957610100808354040283529160200191610312565b820191905f5260205f20905b8154815290600101906020018083116102f557829003601f168201915b5050505050908060020154905083565b6002602052805f5260405f205f915054906101000a900460ff1681565b5f80fd5b5f819050919050565b61035581610343565b811461035f575f80fd5b50565b5f813590506103708161034c565b92915050565b5f6020828403121561038b5761038a61033f565b5b5f61039884828501610362565b91505092915050565b6103aa81610343565b82525050565b5f6020820190506103c35f8301846103a1565b92915050565b5f81519050919050565b5f82825260208201905092915050565b5f5b838110156104005780820151818401526020810190506103e5565b5f8484015250505050565b5f601f19601f8301169050919050565b5f610425826103c9565b61042f81856103d3565b935061043f8185602086016103e3565b6104488161040b565b840191505092915050565b5f6060820190506104665f8301866103a1565b8181036020830152610478818561041b565b905061048760408301846103a1565b949350505050565b5f73ffffffffffffffffffffffffffffffffffffffff82169050919050565b5f6104b88261048f565b9050919050565b6104c8816104ae565b81146104d2575f80fd5b50565b5f813590506104e3816104bf565b92915050565b5f602082840312156104fe576104fd61033f565b5b5f61050b848285016104d5565b91505092915050565b5f8115159050919050565b61052881610514565b82525050565b5f6020820190506105415f83018461051f565b92915050565b7f59612068617320766f7461646f2e0000000000000000000000000000000000005f82015250565b5f61057b600e836103d3565b915061058682610547565b602082019050919050565b5f6020820190508181035f8301526105a88161056f565b9050919050565b7f43616e64696461746f206e6f2076c3a16c69646f0000000000000000000000005f82015250565b5f6105e36014836103d3565b91506105ee826105af565b602082019050919050565b5f6020820190508181035f830152610610816105d7565b9050919050565b7f4e487b71000000000000000000000000000000000000000000000000000000005f52601160045260245ffd5b5f61064e82610343565b91507fffffffffffffffffffffffffffffffffffffffffffffffffffffffffffffffff82036106805761067f610617565b5b600182019050919050565b7f4e487b71000000000000000000000000000000000000000000000000000000005f52602260045260245ffd5b5f60028204905060018216806106cf57607f821691505b6020821081036106e2576106e161068b565b5b5091905056fea2646970667358221220b93b157101b67f5556378a43e3628d5be82a439fae0c93a2ddc328a296f8fe1d64736f6c63430008150033",
  "immutableReferences": {},
  "source": "pragma solidity ^0.8.0;\r\n\r\ncontract Voting {\r\n    struct Candidate {\r\n        uint id;\r\n        string name;\r\n        uint voteCount;\r\n    }\r\n\r\n    mapping(uint => Candidate) public candidates;\r\n    uint public candidatesCount;\r\n    mapping(address => bool) public voters;\r\n\r\n    event votedEvent(uint indexed _candidateId);\r\n\r\n    constructor() {\r\n        addCandidate(\"Candidato 1\");\r\n        addCandidate(\"Candidato 2\");\r\n    }\r\n\r\n    function addCandidate(string memory _name) private {\r\n        candidatesCount++;\r\n        candidates[candidatesCount] = Candidate(candidatesCount, _name, 0);\r\n    }\r\n\r\n    function vote(uint _candidateId) public {\r\n        require(!voters[msg.sender], \"Ya has votado.\");\r\n        require(_candidateId > 0 && _candidateId <= candidatesCount, unicode\"Candidato no vlido\");\r\n\r\n        voters[msg.sender] = true;\r\n        candidates[_candidateId].voteCount++;\r\n\r\n        emit votedEvent(_candidateId);\r\n    }\r\n}",
  "sourcePath": "C:\\Users\\byron\\proyecto-votacion-blockchain\\contracts\\Voting.sol",
  "compiler": {
    "name": "solc",
    "version": "0.8.21+commit.d9974bed.Emscripten.clang"
  },
  "schemaVersion": "3.4.16",
  "updatedAt": "2025-02-03T14:24:26.221Z",
  "devdoc": {
    "kind": "dev",
    "methods": {},
    "version": 1
  },
  "userdoc": {
    "kind": "user",
    "methods": {},
    "version": 1
  }
}